8=FIX.4.4|9=115|35=D|34=1|49=CLIENT|52=20240307-02:35:55.687|56=SERVER|11=123456|38=100|40=1|54=1|55=AAPL|60=20240307-02:35:45.772|10=016|8=FIX.4.4|9=115|35=D|34=2|49=CLIENT|52=20240307-03:06:08.051|56=SERVER|11=123456|38=100|40=1|54=1|55=AAPL|60=20240307-03:06:08.044|10=245|8=FIX.4.4|9=115|35=D|34=3|49=CLIENT|52=20240307-03:09:56.090|56=SERVER|11=123456|38=100|40=1|54=1|55=AAPL|60=20240307-03:08:46.636|10=010|8=FIX.4.4|9=115|35=D|34=4|49=CLIENT|52=20240307-03:10:37.907|56=SERVER|11=123456|38=100|40=1|54=1|55=AAPL|60=20240307-03:10:37.903|10=255|